:100000000C942A000C943C000C943C000C943C0092
:100010000C943C000C943C000C943C000C943C0070
:100020000C943C000C943C000C946F000C943F002A
:100030000C943C000C943C000C943C000C943C0050
:100040000C943C000C943C000C943C000C943C0040
:100050000C943C0011241FBECFE5D8E0DEBFCDBF1D
:1000600020E0A0E6B0E001C01D92A636B207E1F79D
:100070000E943E000C9496000C940000FFCF1F924B
:100080000F920FB60F9211242F933F934F935F93CC
:100090006F937F938F939F93AF93BF93EF93FF9350
:1000A000E0916200F0916300099580916400909165
:1000B000650001969093650080936400FF91EF9135
:1000C000BF91AF919F918F917F916F915F914F9170
:1000D0003F912F910F900FBE0F901F9018951F9278
:1000E0000F920FB60F9211242F933F934F935F936C
:1000F0006F937F938F939F93AF93BF93EF93FF93F0
:10010000E0916000F09161000995FF91EF91BF913E
:10011000AF919F918F917F916F915F914F913F919F
:100120002F910F900FBE0F901F901895F894FFCF4E
:00000001FF
