:100000000C942A000C9434000C9434000C943400AA
:100010000C9434000C9434000C9434000C94340090
:100020000C9434000C9434000C9434000C94340080
:100030000C9434000C9434000C9434000C94340070
:100040000C9434000C9434000C9434000C94340060
:100050000C94340011241FBECFE5D8E0DEBFCDBF25
:100060000E9436000C9484010C9400008FE090E014
:100070000E946400C82F0E94DD0001C0C0E085E836
:100080000E946D0080E38C0F0E9414016C2F8FE0A2
:1000900090E00E945800CF5F2FE78FE492E121505B
:1000A00080409040E1F700C00000CA3041F7E6CF41
:1000B000E199FECF9FBB8EBB6DBB8CB384608CBBC4
:1000C0008CB382608CBB0895E199FECF9FBB8EBB41
:1000D0008CB381608CBB8DB3089598B3977F98BB28
:1000E000882324F498B3906898BB03C098B39F7793
:1000F00098BB86FF04C098B3906498BB03C098B3C4
:100100009F7B98BB85FF04C098B3906298BB03C0E7
:1001100098B39F7D98BB84FF04C098B3906198BB4F
:1001200003C098B39F7E98BB98B3946098BBE7EBED
:10013000FBE03197F1F700C0000098B39B7F98BBBC
:10014000E7EBFBE03197F1F700C0000083FF04C04C
:1001500098B3906898BB03C098B39F7798BB82FF11
:1001600004C098B3906498BB03C098B39F7B98BBBE
:1001700081FF04C098B3906298BB03C098B39F7D81
:1001800098BB80FF04C088B3806188BB03C088B37C
:100190008F7E88BB88B3846088BB87EB9BE0019728
:1001A000F1F700C0000088B38B7F88BBE7EBFBE072
:1001B0003197F1F700C00000089587B38C6F87BBBB
:1001C00083E00E946D008FED9EE20197F1F700C081
:1001D000000083E00E946D008FED9EE20197F1F731
:1001E00000C0000083E00E946D008FED9EE2019749
:1001F000F1F700C0000082E00E946D0088E20E94DA
:100200006D0088E00E946D0081E00E946D0086E034
:100210000E946D008CE00E946D008FE59AEE0197C0
:10022000F1F700C00000089598B3986098BB882348
:1002300024F498B3906898BB03C098B39F7798BB99
:1002400086FF04C098B3906498BB03C098B39F7BAB
:1002500098BB85FF04C098B3906298BB03C098B365
:100260009F7D98BB84FF04C098B3906198BB03C086
:1002700098B39F7E98BB98B3946098BBE7EBFBE084
:100280003197F1F700C0000098B39B7F98BBE7EB74
:10029000FBE03197F1F700C0000083FF04C098B382
:1002A000906898BB03C098B39F7798BB82FF04C047
:1002B00098B3906498BB03C098B39F7B98BB81FFB1
:1002C00004C098B3906298BB03C098B39F7D98BB5D
:1002D00080FF04C088B3806188BB03C088B38F7E71
:1002E00088BB88B3846088BB87EB9BE00197F1F7FC
:1002F00000C0000088B38B7F88BBE7EBFBE0319741
:0C030000F1F700C000000895F894FFCF52
:00000001FF
