:100000000C942A000C9447000C9447000C94470071
:100010000C9447000C9447000C9447000C94470044
:100020000C9447000C9447000C940E030C94DE02D1
:100030000C9447000C9447000C9447000C94470024
:100040000C9447000C9447000C9447000C94470014
:100050000C94470011241FBECFE5D8E0DEBFCDBF12
:1000600010E0A0E6B0E0E0EEF8E002C005900D92EE
:10007000A636B107D9F720E0A6E6B0E001C01D9290
:10008000AC36B207E1F70E9449000C946E040C9460
:1000900000000E946B000E946E0182E00E948802B4
:1000A00080E690E00E94150281E00E947B00C82F4C
:1000B0000E9428022FE789EA93E021508040904077
:1000C000E1F700C0000081E00E94FE0062E08C2F9A
:1000D0000E94B702E9CF87B1806487B986B1806892
:1000E00086B986B1816086B986B1826086B986B1EB
:1000F000846086B90895CF93C82F40E0682F80E0D0
:100100000E948E0087B18C2B87B986B1806486B936
:100110003699FECF84B195B1CF9108954F3FA1F5A7
:10012000813089F028F08230C9F0833011F10895D0
:100130002AB381E090E002C0880F991F6A95E2F728
:10014000822B8ABB089527B381E090E002C0880F1C
:10015000991F6A95E2F7822B87BB089524B381E04B
:1001600090E002C0880F991F6A95E2F7822B84BB4A
:10017000089521B381E090E002C0880F991F6A952D
:10018000E2F7822B81BB0895411137C0813091F095
:1001900028F08230D9F0833029F108952AB381E024
:1001A00090E002C0880F991F6A95E2F7809582233C
:1001B0008ABB089527B381E090E002C0880F991FA1
:1001C0006A95E2F78095822387BB089524B381E086
:1001D00090E002C0880F991F6A95E2F7809582230C
:1001E00084BB089521B381E090E002C0880F991F7D
:1001F0006A95E2F78095822381BB089598B3977F33
:1002000098BB882324F498B3906898BB03C098B334
:100210009F7798BB86FF04C098B3906498BB03C0D7
:1002200098B39F7B98BB85FF04C098B3906298BB3E
:1002300003C098B39F7D98BB84FF04C098B39061BE
:1002400098BB03C098B39F7E98BB98B3946098BB4B
:10025000E7EBFBE03197F1F700C0000098B39B7F1C
:1002600098BBE7EBFBE03197F1F700C0000083FF9C
:1002700004C098B3906898BB03C098B39F7798BBAD
:1002800082FF04C098B3906498BB03C098B39F7B6F
:1002900098BB81FF04C098B3906298BB03C098B329
:1002A0009F7D98BB80FF04C088B3806188BB03C07A
:1002B00088B38F7E88BB88B3846088BB87EB9BE064
:1002C0000197F1F700C0000088B38B7F88BBE7EB94
:1002D000FBE03197F1F700C00000089587B38C6F01
:1002E00087BB83E00E94FE008FED9EE20197F1F74D
:1002F00000C0000083E00E94FE008FED9EE20197A7
:10030000F1F700C0000083E00E94FE008FED9EE246
:100310000197F1F700C0000082E00E94FE0088E231
:100320000E94FE0088E00E94FE0081E00E94FE0024
:1003300086E00E94FE008CE00E94FE008FE59AEEAF
:100340000197F1F700C00000089598B3986098BB3A
:10035000882324F498B3906898BB03C098B39F7720
:1003600098BB86FF04C098B3906498BB03C098B351
:100370009F7B98BB85FF04C098B3906298BB03C075
:1003800098B39F7D98BB84FF04C098B3906198BBDD
:1003900003C098B39F7E98BB98B3946098BBE7EB7B
:1003A000FBE03197F1F700C0000098B39B7F98BB4A
:1003B000E7EBFBE03197F1F700C0000083FF04C0DA
:1003C00098B3906898BB03C098B39F7798BB82FF9F
:1003D00004C098B3906498BB03C098B39F7B98BB4C
:1003E00081FF04C098B3906298BB03C098B39F7D0F
:1003F00098BB80FF04C088B3806188BB03C088B30A
:100400008F7E88BB88B3846088BB87EB9BE00197B5
:10041000F1F700C0000088B38B7F88BBE7EBFBE0FF
:100420003197F1F700C0000008950F931F93CF9309
:100430008C01C0E003C00E94A501CF5FF801EC0F62
:10044000F11D80818111F7CFCF911F910F910895F8
:100450001F93CF93DF93CDB7DEB72A970FB6F894EB
:10046000DEBF0FBECDBFAC01892BA1F580E30E949A
:10047000A50144C09A01ADECBCEC0E945F049695C6
:10048000879596958795969587959C01220F331FA2
:10049000880F991F880F991F880F991F820F931F2C
:1004A0009A01281B390BC901E1E0F0E0EC0FFD1FB8
:1004B000E10FF11D17FDFA95805D80839A010E947E
:1004C0005F04AC01569547955695479556954795C7
:1004D0001F5F01C010E04115510561F611500CC0BD
:1004E000E1E0F0E0EC0FFD1FE10FF11D17FDFA95C3
:1004F00080810E94A5011150112394F72A960FB60E
:10050000F894DEBF0FBECDBFDF91CF911F9108954C
:10051000813019F08230B1F008954FEF65E083E04B
:100520000E948E008FB580688FBD8FB581608FBDB2
:100530008FB582608FBD8EB588608EBD8EB58160AF
:100540008EBD08954FEF64E083E00E948E008FB56A
:1005500080628FBD8FB581608FBD8FB582608FBD8A
:100560008EB588608EBD8EB581608EBD0895613078
:1005700019F0623091F00895682F70E080E090E00B
:100580000E94660324E13EEA43E251E40E94CA036A
:100590000E9435037BBD6ABD0895682F70E080E03E
:1005A00090E00E94660324E13EEA43E251E40E94A7
:1005B000CA030E94350379BD68BD08951F920F924A
:1005C0000FB60F9211242F933F934F935F936F9326
:1005D0007F938F939F93AF93BF93EF93FF93E0919C
:1005E0006800F0916900099580916A0090916B0014
:1005F000019690936B0080936A00FF91EF91BF91F9
:10060000AF919F918F917F916F915F914F913F91AA
:100610002F910F900FBE0F901F9018951F920F9261
:100620000FB60F9211242F933F934F935F936F93C5
:100630007F938F939F93AF93BF93EF93FF93E0913B
:100640006600F09167000995FF91EF91BF91AF911E
:100650009F918F917F916F915F914F913F912F91DA
:100660000F900FBE0F901F9018950E94A90388F05D
:100670009F5798F0B92F9927B751B0F0E1F0660F66
:10068000771F881F991F1AF0BA95C9F714C0B130A7
:1006900091F00E94C303B1E008950C94C303672F47
:1006A000782F8827B85F39F0B93FCCF386957795D6
:1006B0006795B395D9F73EF49095809570956195BF
:1006C0007F4F8F4F9F4F0895E89409C097FB3EF4EA
:1006D00090958095709561957F4F8F4F9F4F99238F
:1006E000A9F0F92F96E9BB279395F695879577950D
:1006F0006795B795F111F8CFFAF4BB0F11F460FFCD
:100700001BC06F5F7F4F8F4F9F4F16C0882311F024
:1007100096E911C0772321F09EE8872F762F05C038
:10072000662371F096E8862F70E060E02AF09A95D3
:10073000660F771F881FDAF7880F9695879597F9C8
:10074000089557FD9058440F551F59F05F3F71F0C1
:100750004795880F97FB991F61F09F3F79F0879528
:100760000895121613061406551FF2CF4695F1DFB1
:1007700008C0161617061806991FF1CF8695710541
:10078000610508940895E894BB2766277727CB0175
:1007900097F908950E94DD030C944E040E944004D2
:1007A00038F00E94470420F0952311F00C94370490
:1007B0000C943D0411240C94C4030E94A10370F313
:1007C000959FC1F3950F50E0551F629FF001729FF6
:1007D000BB27F00DB11D639FAA27F00DB11DAA1F05
:1007E000649F6627B00DA11D661F829F2227B00D52
:1007F000A11D621F739FB00DA11D621F839FA00DDD
:10080000611D221F749F3327A00D611D231F849F2C
:10081000600D211D822F762F6A2F11249F57504083
:100820009AF0F1F088234AF0EE0FFF1FBB1F661FFE
:10083000771F881F91505040A9F79E3F510580F0C7
:100840000C9437040C94C4035F3FE4F3983ED4F354
:10085000869577956795B795F795E7959F5FC1F76B
:10086000FE2B880F911D9695879597F9089597F916
:100870009F6780E870E060E008959FEF80EC089546
:1008800000240A941616170618060906089500246F
:100890000A9412161306140605060895092E0394E9
:1008A000000C11F4882352F0BB0F40F4BF2B11F45D
:1008B00060FF04C06F5F7F4F8F4F9F4F0895A29FCF
:1008C000B001B39FC001A39F700D811D1124911D24
:1008D000B29F700D811D1124911D0895F894FFCFD2
:0608E0004144433D00000D
:00000001FF
