S01A000045787472656E616C5F696E746572727570742E737265637B
S11300000C942A000C9449000C9434000C94340091
S11300100C9434000C9434000C9434000C9434008C
S11300200C9434000C9434000C9434000C9434007C
S11300300C9434000C9434000C9434000C9434006C
S11300400C9434000C9434000C9434000C9434005C
S11300500C94340011241FBECFE5D8E0DEBFCDBF21
S11300600E9436000C947A010C9400004FEF60E07B
S113007080E00E94E00040E062E083E00E94E00053
S113008041E062E083E00E94700080E00E94500141
S1130090FFCF1F920F920FB60F9211242F933F930D
S11300A04F935F936F937F938F939F93AF93BF937C
S11300B0EF93FF9341E060E080E00E947000FF91C5
S11300C0EF91BF91AF919F918F917F916F915F91CC
S11300D04F913F912F910F900FBE0F901F90189545
S11300E04130A1F5813089F028F08230C9F08330A5
S11300F011F108952BB381E090E002C0880F991F9D
S11301006A95E2F7822B8BBB089528B381E090E0D7
S113011002C0880F991F6A95E2F7822B88BB089565
S113012025B381E090E002C0880F991F6A95E2F739
S1130130822B85BB089522B381E090E002C0880F32
S1130140991F6A95E2F7822B82BB0895411137C04B
S1130150813091F028F08230D9F0833029F108956C
S11301602BB381E090E002C0880F991F6A95E2F7F3
S1130170809582238BBB089528B381E090E002C070
S1130180880F991F6A95E2F78095822388BB0895AA
S113019025B381E090E002C0880F991F6A95E2F7C9
S11301A08095822385BB089522B381E090E002C04C
S11301B0880F991F6A95E2F78095822382BB089580
S11301C04F3FA1F5813089F028F08230C9F08330A7
S11301D011F108952AB381E090E002C0880F991FBD
S11301E06A95E2F7822B8ABB089527B381E090E0F9
S11301F002C0880F991F6A95E2F7822B87BB089586
S113020024B381E090E002C0880F991F6A95E2F759
S1130210822B84BB089521B381E090E002C0880F53
S1130220991F6A95E2F7822B81BB0895411137C06B
S1130230813091F028F08230D9F0833029F108958B
S11302402AB381E090E002C0880F991F6A95E2F713
S1130250809582238ABB089527B381E090E002C091
S1130260880F991F6A95E2F78095822387BB0895CA
S113027024B381E090E002C0880F991F6A95E2F7E9
S11302808095822384BB089521B381E090E002C06D
S1130290880F991F6A95E2F78095822381BB0895A0
S11302A0813089F018F08230D9F008958FB78068D2
S11302B08FBF8BB780648BBF85B7816085BF85B7DF
S11302C0826085BF08958FB780688FBF8BB78068C1
S11302D08BBF85B7816085BF85B7826085BF089570
S11302E08FB780688FBF8BB780628BBF84B7806401
S10B02F084BF0895F894FFCFC8
S9030000FC
