:100000000C942A000C9434000C9434000C943400AA
:100010000C9434000C9434000C9434000C94340090
:100020000C9434000C9434000C9434000C94340080
:100030000C9434000C9434000C9434000C94340070
:100040000C9434000C9434000C9434000C94340060
:100050000C94340011241FBECFE5D8E0DEBFCDBF25
:100060000E9436000C9444010C9400004FEF60E0B5
:1000700080E00E94C80080E00E9438012FEF8BE4EE
:100080009DE1215080409040E1F700C0000041E038
:1000900060E080E00E9458002FE789EA93E0215059
:1000A00080409040E1F700C000000E943F01EFCF88
:1000B0004130A1F5813089F028F08230C9F08330D9
:1000C00011F108952BB381E090E002C0880F991FD1
:1000D0006A95E2F7822B8BBB089528B381E090E00C
:1000E00002C0880F991F6A95E2F7822B88BB08959A
:1000F00025B381E090E002C0880F991F6A95E2F76E
:10010000822B85BB089522B381E090E002C0880F66
:10011000991F6A95E2F7822B82BB0895411137C07F
:10012000813091F028F08230D9F0833029F10895A0
:100130002BB381E090E002C0880F991F6A95E2F727
:10014000809582238BBB089528B381E090E002C0A4
:10015000880F991F6A95E2F78095822388BB0895DE
:1001600025B381E090E002C0880F991F6A95E2F7FD
:100170008095822385BB089522B381E090E002C080
:10018000880F991F6A95E2F78095822382BB0895B4
:100190004F3FA1F5813089F028F08230C9F08330DB
:1001A00011F108952AB381E090E002C0880F991FF1
:1001B0006A95E2F7822B8ABB089527B381E090E02D
:1001C00002C0880F991F6A95E2F7822B87BB0895BA
:1001D00024B381E090E002C0880F991F6A95E2F78E
:1001E000822B84BB089521B381E090E002C0880F88
:1001F000991F6A95E2F7822B81BB0895411137C0A0
:10020000813091F028F08230D9F0833029F10895BF
:100210002AB381E090E002C0880F991F6A95E2F747
:10022000809582238ABB089527B381E090E002C0C5
:10023000880F991F6A95E2F78095822387BB0895FE
:1002400024B381E090E002C0880F991F6A95E2F71D
:100250008095822384BB089521B381E090E002C0A1
:10026000880F991F6A95E2F78095822381BB0895D4
:1002700091B5986091BD91B5892B81BD089581B5E7
:0C028000886181BD11BC0895F894FFCF87
:00000001FF
