S012000054494D4552315F50574D2E737265630D
S11300000C942A000C9434000C9434000C943400A6
S11300100C9434000C9434000C9434000C9434008C
S11300200C9434000C9434000C9434000C9434007C
S11300300C9434000C9434000C9434000C9434006C
S11300400C9434000C9434000C9434000C9434005C
S11300500C94340011241FBECFE5D8E0DEBFCDBF21
S11300600E9436000C942E020C94000081E00E9441
S1130070AE0061E082E30E94DD00FFCF4F3FA1F5B7
S1130080813089F028F08230C9F0833011F108956D
S11300902AB381E090E002C0880F991F6A95E2F7C5
S11300A0822B8ABB089527B381E090E002C0880FB9
S11300B0991F6A95E2F7822B87BB089524B381E0E8
S11300C090E002C0880F991F6A95E2F7822B84BBE7
S11300D0089521B381E090E002C0880F991F6A95CA
S11300E0E2F7822B81BB0895411137C0813091F032
S11300F028F08230D9F0833029F108952AB381E0C1
S113010090E002C0880F991F6A95E2F780958223D8
S11301108ABB089527B381E090E002C0880F991F3D
S11301206A95E2F78095822387BB089524B381E022
S113013090E002C0880F991F6A95E2F780958223A8
S113014084BB089521B381E090E002C0880F991F19
S11301506A95E2F78095822381BB0895813019F076
S11301608230B1F008954FEF65E083E00E943E00D5
S11301708FB580688FBD8FB581608FBD8FB582606C
S11301808FBD8EB588608EBD8EB581608EBD08959D
S11301904FEF64E083E00E943E008FB580648FBD22
S11301A08FB582608FBD8FB581608FBD8EB588603D
S11301B08EBD8EB581608EBD0895613019F06230B8
S11301C091F00895682F70E080E090E00E9435017E
S11301D024E13EEA43E251E40E9499010E940401B1
S11301E07BBD6ABD0895682F70E080E090E00E94B6
S11301F0350124E13EEA43E251E40E9499010E9460
S1130200040179BD68BD08950E94780188F09F5764
S113021098F0B92F9927B751B0F0E1F0660F771F26
S1130220881F991F1AF0BA95C9F714C0B13091F01C
S11302300E949201B1E008950C949201672F782FE7
S11302408827B85F39F0B93FCCF3869577956795E1
S1130250B395D9F73EF490958095709561957F4F4D
S11302608F4F9F4F0895E89409C097FB3EF49095F3
S11302708095709561957F4F8F4F9F4F9923A9F07B
S1130280F92F96E9BB279395F6958795779567950A
S1130290B795F111F8CFFAF4BB0F11F460FF1BC04E
S11302A06F5F7F4F8F4F9F4F16C0882311F096E9E1
S11302B011C0772321F09EE8872F762F05C066238F
S11302C071F096E8862F70E060E02AF09A95660F48
S11302D0771F881FDAF7880F9695879597F9089501
S11302E057FD9058440F551F59F05F3F71F04795E3
S11302F0880F97FB991F61F09F3F79F087950895C8
S1130300121613061406551FF2CF4695F1DF08C0E6
S1130310161617061806991FF1CF86957105610503
S113032008940895E894BB2766277727CB0197F9AB
S113033008950E94AC010C941D020E940F0238F033
S11303400E94160220F0952311F00C9406020C94DE
S11303500C0211240C9493010E94700170F3959F78
S1130360C1F3950F50E0551F629FF001729FBB27A8
S1130370F00DB11D639FAA27F00DB11DAA1F649F44
S11303806627B00DA11D661F829F2227B00DA11DF7
S1130390621F739FB00DA11D621F839FA00D611D7D
S11303A0221F749F3327A00D611D231F849F600D9E
S11303B0211D822F762F6A2F11249F5750409AF0C7
S11303C0F1F088234AF0EE0FFF1FBB1F661F771F53
S11303D0881F91505040A9F79E3F510580F00C941E
S11303E006020C9493015F3FE4F3983ED4F38695A0
S11303F077956795B795F795E7959F5FC1F7FE2BBE
S1130400880F911D9695879597F9089597F99F6799
S113041080E870E060E008959FEF80EC0895002488
S11304200A941616170618060906089500240A9455
S113043012161306140605060895092E0394000CDB
S113044011F4882352F0BB0F40F4BF2B11F460FF6A
S113045004C06F5F7F4F8F4F9F4F0895F894FFCF75
S9030000FC
