:100000000C942A000C9434000C9434000C943400AA
:100010000C9434000C9434000C9434000C94340090
:100020000C9434000C9434000C9434000C94340080
:100030000C9434000C9434000C9434000C94340070
:100040000C9434000C9434000C9434000C94340060
:100050000C94340011241FBECFE5D8E0DEBFCDBF25
:100060000E9436000C94E0000C9400000E94B8003E
:100070002FEF82E597E0215080409040E1F700C0EB
:10008000000080E0C1E0C80F0E94D3008C2FFACF9F
:100090004F3FA1F5813089F028F08230C9F08330DC
:1000A00011F108952AB381E090E002C0880F991FF2
:1000B0006A95E2F7822B8ABB089527B381E090E02E
:1000C00002C0880F991F6A95E2F7822B87BB0895BB
:1000D00024B381E090E002C0880F991F6A95E2F78F
:1000E000822B84BB089521B381E090E002C0880F89
:1000F000991F6A95E2F7822B81BB0895411137C0A1
:10010000813091F028F08230D9F0833029F10895C0
:100110002AB381E090E002C0880F991F6A95E2F748
:10012000809582238ABB089527B381E090E002C0C6
:10013000880F991F6A95E2F78095822387BB0895FF
:1001400024B381E090E002C0880F991F6A95E2F71E
:100150008095822384BB089521B381E090E002C0A2
:10016000880F991F6A95E2F78095822381BB0895D5
:100170004FEF65E081E00E94480040E066E081E0EA
:100180000E9448004FEF64E081E00E9448004FEF7A
:1001900067E081E00E9448008DB180618DB98DB12A
:1001A00080648DB908958FB9779BFECF2FE78FE4D8
:1001B00092E1215080409040E1F700C00000089596
:0401C000F894FFCFE1
:00000001FF
