S01200004932435F4472697665722E7372656389
S11300000C942A000C9434000C9434000C943400A6
S11300100C9434000C9434000C9434000C9434008C
S11300200C9434000C9434000C9434000C9434007C
S11300300C9434000C9434000C9434000C9434006C
S11300400C9434000C9434000C9434000C9434005C
S11300500C94340011241FBECFE5D8E0DEBFCDBF21
S11300600E9436000C9493000C9400000E946F00D0
S11300702FE789EA93E0215080409040E1F700C0E7
S11300800000C0E0CF5FC0FD15C00E94720060E0B8
S113009082E30E9478008C2F0E9489000E949000C5
S11300A02FEF85EA9EE0215080409040E1F700C0A8
S11300B00000E8CF0E94720060E083E30E947800B1
S11300C08C2F0E9489000E9490002FEF85EA9EE009
S11300D0215080409040E1F700C00000D3CF8CE075
S11300E080B9089584EA86BF06B607FEFDCF089559
S11300F0880F83B9613021F483B1816083B903C06F
S113010083B18E7F83B984E886BF06B607FEFDCF30
S1130110089583B984E886BF06B607FEFDCF089527
S10D012084E986BF0895F894FFCF28
S9030000FC
